{
  "address": "0x08B766A65094bc6be60575351C8B542a28438FAB",
  "abi": [
    {
      "anonymous": false,
      "inputs": [
        {
          "indexed": false,
          "internalType": "uint256",
          "name": "tradeId",
          "type": "uint256"
        },
        {
          "indexed": false,
          "internalType": "address",
          "name": "user",
          "type": "address"
        }
      ],
      "name": "TradeAgreed",
      "type": "event"
    },
    {
      "anonymous": false,
      "inputs": [
        {
          "indexed": false,
          "internalType": "uint256",
          "name": "tradeId",
          "type": "uint256"
        }
      ],
      "name": "TradeCancelled",
      "type": "event"
    },
    {
      "anonymous": false,
      "inputs": [
        {
          "indexed": false,
          "internalType": "uint256",
          "name": "tradeId",
          "type": "uint256"
        }
      ],
      "name": "TradeCompleted",
      "type": "event"
    },
    {
      "anonymous": false,
      "inputs": [
        {
          "indexed": false,
          "internalType": "uint256",
          "name": "tradeId",
          "type": "uint256"
        },
        {
          "indexed": false,
          "internalType": "address",
          "name": "user",
          "type": "address"
        }
      ],
      "name": "TradeConfirmed",
      "type": "event"
    },
    {
      "anonymous": false,
      "inputs": [
        {
          "indexed": false,
          "internalType": "uint256",
          "name": "tradeId",
          "type": "uint256"
        }
      ],
      "name": "TradeProposed",
      "type": "event"
    },
    {
      "inputs": [
        {
          "internalType": "uint256",
          "name": "_tradeId",
          "type": "uint256"
        },
        {
          "internalType": "address",
          "name": "_fromNftContract",
          "type": "address"
        },
        {
          "internalType": "uint256",
          "name": "_fromNftId",
          "type": "uint256"
        },
        {
          "internalType": "address",
          "name": "_toNftContract",
          "type": "address"
        },
        {
          "internalType": "uint256",
          "name": "_toNftId",
          "type": "uint256"
        }
      ],
      "name": "agreeTrade",
      "outputs": [],
      "stateMutability": "nonpayable",
      "type": "function"
    },
    {
      "inputs": [
        {
          "internalType": "uint256",
          "name": "_tradeId",
          "type": "uint256"
        }
      ],
      "name": "cancelTrade",
      "outputs": [],
      "stateMutability": "nonpayable",
      "type": "function"
    },
    {
      "inputs": [
        {
          "internalType": "uint256",
          "name": "_tradeId",
          "type": "uint256"
        }
      ],
      "name": "confirmTrade",
      "outputs": [],
      "stateMutability": "nonpayable",
      "type": "function"
    },
    {
      "inputs": [
        {
          "internalType": "uint256",
          "name": "_tradeId",
          "type": "uint256"
        }
      ],
      "name": "getTrade",
      "outputs": [
        {
          "components": [
            {
              "internalType": "address",
              "name": "fromAddress",
              "type": "address"
            },
            {
              "internalType": "address",
              "name": "fromNftContract",
              "type": "address"
            },
            {
              "internalType": "uint256",
              "name": "fromNftId",
              "type": "uint256"
            },
            {
              "internalType": "bool",
              "name": "fromHasAgreed",
              "type": "bool"
            },
            {
              "internalType": "bool",
              "name": "fromHasConfirmed",
              "type": "bool"
            },
            {
              "internalType": "address",
              "name": "toAddress",
              "type": "address"
            },
            {
              "internalType": "address",
              "name": "toNftContract",
              "type": "address"
            },
            {
              "internalType": "uint256",
              "name": "toNftId",
              "type": "uint256"
            },
            {
              "internalType": "bool",
              "name": "toHasAgreed",
              "type": "bool"
            },
            {
              "internalType": "bool",
              "name": "toHasConfirmed",
              "type": "bool"
            },
            {
              "internalType": "enum NftSwap.TradeStatus",
              "name": "status",
              "type": "uint8"
            }
          ],
          "internalType": "struct NftSwap.Trade",
          "name": "",
          "type": "tuple"
        }
      ],
      "stateMutability": "view",
      "type": "function"
    },
    {
      "inputs": [
        {
          "internalType": "address",
          "name": "_toAddress",
          "type": "address"
        }
      ],
      "name": "proposeTrade",
      "outputs": [
        {
          "internalType": "uint256",
          "name": "",
          "type": "uint256"
        }
      ],
      "stateMutability": "nonpayable",
      "type": "function"
    },
    {
      "inputs": [
        {
          "internalType": "uint256",
          "name": "",
          "type": "uint256"
        }
      ],
      "name": "trades",
      "outputs": [
        {
          "internalType": "address",
          "name": "fromAddress",
          "type": "address"
        },
        {
          "internalType": "address",
          "name": "fromNftContract",
          "type": "address"
        },
        {
          "internalType": "uint256",
          "name": "fromNftId",
          "type": "uint256"
        },
        {
          "internalType": "bool",
          "name": "fromHasAgreed",
          "type": "bool"
        },
        {
          "internalType": "bool",
          "name": "fromHasConfirmed",
          "type": "bool"
        },
        {
          "internalType": "address",
          "name": "toAddress",
          "type": "address"
        },
        {
          "internalType": "address",
          "name": "toNftContract",
          "type": "address"
        },
        {
          "internalType": "uint256",
          "name": "toNftId",
          "type": "uint256"
        },
        {
          "internalType": "bool",
          "name": "toHasAgreed",
          "type": "bool"
        },
        {
          "internalType": "bool",
          "name": "toHasConfirmed",
          "type": "bool"
        },
        {
          "internalType": "enum NftSwap.TradeStatus",
          "name": "status",
          "type": "uint8"
        }
      ],
      "stateMutability": "view",
      "type": "function"
    }
  ],
  "transactionHash": "0xf89c1d26182eb0b5db76736384c6e67980fa4f8515fe3518cf4657d91a7470d3",
  "args": [],
  "numDeployments": 2,
  "solcInputHash": "65917d6b6b26429677d753c3ba4d2363",
  "bytecode": "0x6080604052348015600f57600080fd5b5061383a8061001f6000396000f3fe608060405234801561001057600080fd5b50600436106100625760003560e01c806309ec6cc7146100675780631e6c598e146100835780632db25e05146100bd5780639ec0507f146100ed578063ae601c2514610109578063fbc8995714610125575b600080fd5b610081600480360381019061007c91906126df565b610155565b005b61009d600480360381019061009891906126df565b6103cd565b6040516100b49b9a999897969594939291906127ee565b60405180910390f35b6100d760048036038101906100d291906126df565b6104f8565b6040516100e491906129b6565b60405180910390f35b610107600480360381019061010291906126df565b610748565b005b610123600480360381019061011e91906129fe565b61111a565b005b61013f600480360381019061013a9190612a79565b6117f3565b60405161014c9190612aa6565b60405180910390f35b600080549050811061019c576040517f08c379a000000000000000000000000000000000000000000000000000000000815260040161019390612b1e565b60405180910390fd5b60008082815481106101b1576101b0612b3e565b5b90600052602060002090600702019050600060038111156101d5576101d4612777565b5b8160060160029054906101000a900460ff1660038111156101f9576101f8612777565b5b148061023a57506001600381111561021457610213612777565b5b8160060160029054906101000a900460ff16600381111561023857610237612777565b5b145b610279576040517f08c379a000000000000000000000000000000000000000000000000000000000815260040161027090612bdf565b60405180910390fd5b8060000160009054906101000a900473ffffffffffffffffffffffffffffffffffffffff1673ffffffffffffffffffffffffffffffffffffffff163373ffffffffffffffffffffffffffffffffffffffff16148061032657508060030160029054906101000a900473ffffffffffffffffffffffffffffffffffffffff1673ffffffffffffffffffffffffffffffffffffffff163373ffffffffffffffffffffffffffffffffffffffff16145b610365576040517f08c379a000000000000000000000000000000000000000000000000000000000815260040161035c90612c71565b60405180910390fd5b60038160060160026101000a81548160ff0219169083600381111561038d5761038c612777565b5b02179055507f4e02dcf02d8510f6c8a6878a3c54ae6e2bfbf552df29221d7a1eed173a6b1ae7826040516103c19190612aa6565b60405180910390a15050565b600081815481106103dd57600080fd5b90600052602060002090600702016000915090508060000160009054906101000a900473ffffffffffffffffffffffffffffffffffffffff16908060010160009054906101000a900473ffffffffffffffffffffffffffffffffffffffff16908060020154908060030160009054906101000a900460ff16908060030160019054906101000a900460ff16908060030160029054906101000a900473ffffffffffffffffffffffffffffffffffffffff16908060040160009054906101000a900473ffffffffffffffffffffffffffffffffffffffff16908060050154908060060160009054906101000a900460ff16908060060160019054906101000a900460ff16908060060160029054906101000a900460ff1690508b565b6105006125d8565b6000828154811061051457610513612b3e565b5b9060005260206000209060070201604051806101600160405290816000820160009054906101000a900473ffffffffffffffffffffffffffffffffffffffff1673ffffffffffffffffffffffffffffffffffffffff1673ffffffffffffffffffffffffffffffffffffffff1681526020016001820160009054906101000a900473ffffffffffffffffffffffffffffffffffffffff1673ffffffffffffffffffffffffffffffffffffffff1673ffffffffffffffffffffffffffffffffffffffff168152602001600282015481526020016003820160009054906101000a900460ff161515151581526020016003820160019054906101000a900460ff161515151581526020016003820160029054906101000a900473ffffffffffffffffffffffffffffffffffffffff1673ffffffffffffffffffffffffffffffffffffffff1673ffffffffffffffffffffffffffffffffffffffff1681526020016004820160009054906101000a900473ffffffffffffffffffffffffffffffffffffffff1673ffffffffffffffffffffffffffffffffffffffff1673ffffffffffffffffffffffffffffffffffffffff168152602001600582015481526020016006820160009054906101000a900460ff161515151581526020016006820160019054906101000a900460ff161515151581526020016006820160029054906101000a900460ff16600381111561072b5761072a612777565b5b600381111561073d5761073c612777565b5b815250509050919050565b600080549050811061078f576040517f08c379a000000000000000000000000000000000000000000000000000000000815260040161078690612b1e565b60405180910390fd5b60008082815481106107a4576107a3612b3e565b5b90600052602060002090600702019050600160038111156107c8576107c7612777565b5b8160060160029054906101000a900460ff1660038111156107ec576107eb612777565b5b1461082c576040517f08c379a000000000000000000000000000000000000000000000000000000000815260040161082390612cdd565b60405180910390fd5b8060000160009054906101000a900473ffffffffffffffffffffffffffffffffffffffff1673ffffffffffffffffffffffffffffffffffffffff163373ffffffffffffffffffffffffffffffffffffffff1614806108d957508060030160029054906101000a900473ffffffffffffffffffffffffffffffffffffffff1673ffffffffffffffffffffffffffffffffffffffff163373ffffffffffffffffffffffffffffffffffffffff16145b610918576040517f08c379a000000000000000000000000000000000000000000000000000000000815260040161090f90612d6f565b60405180910390fd5b60008160010160009054906101000a900473ffffffffffffffffffffffffffffffffffffffff16905060008260040160009054906101000a900473ffffffffffffffffffffffffffffffffffffffff1690508260000160009054906101000a900473ffffffffffffffffffffffffffffffffffffffff1673ffffffffffffffffffffffffffffffffffffffff168273ffffffffffffffffffffffffffffffffffffffff16636352211e85600201546040518263ffffffff1660e01b81526004016109e29190612aa6565b602060405180830381865afa1580156109ff573d6000803e3d6000fd5b505050506040513d601f19601f82011682018060405250810190610a239190612da4565b73ffffffffffffffffffffffffffffffffffffffff16141580610b1357508260030160029054906101000a900473ffffffffffffffffffffffffffffffffffffffff1673ffffffffffffffffffffffffffffffffffffffff168173ffffffffffffffffffffffffffffffffffffffff16636352211e85600501546040518263ffffffff1660e01b8152600401610ab99190612aa6565b602060405180830381865afa158015610ad6573d6000803e3d6000fd5b505050506040513d601f19601f82011682018060405250810190610afa9190612da4565b73ffffffffffffffffffffffffffffffffffffffff1614155b15610bb75760038360060160026101000a81548160ff02191690836003811115610b4057610b3f612777565b5b02179055507f4e02dcf02d8510f6c8a6878a3c54ae6e2bfbf552df29221d7a1eed173a6b1ae784604051610b749190612aa6565b60405180910390a16040517f08c379a0000000000000000000000000000000000000000000000000000000008152600401610bae90612e43565b60405180910390fd5b8260000160009054906101000a900473ffffffffffffffffffffffffffffffffffffffff1673ffffffffffffffffffffffffffffffffffffffff163373ffffffffffffffffffffffffffffffffffffffff1603610da5578173ffffffffffffffffffffffffffffffffffffffff1663e985e9c58460000160009054906101000a900473ffffffffffffffffffffffffffffffffffffffff16306040518363ffffffff1660e01b8152600401610c6d929190612e63565b602060405180830381865afa158015610c8a573d6000803e3d6000fd5b505050506040513d601f19601f82011682018060405250810190610cae9190612eb8565b80610d6157503073ffffffffffffffffffffffffffffffffffffffff168273ffffffffffffffffffffffffffffffffffffffff1663081812fc85600201546040518263ffffffff1660e01b8152600401610d089190612aa6565b602060405180830381865afa158015610d25573d6000803e3d6000fd5b505050506040513d601f19601f82011682018060405250810190610d499190612da4565b73ffffffffffffffffffffffffffffffffffffffff16145b610da0576040517f08c379a0000000000000000000000000000000000000000000000000000000008152600401610d9790612f57565b60405180910390fd5b610f38565b8073ffffffffffffffffffffffffffffffffffffffff1663e985e9c58460030160029054906101000a900473ffffffffffffffffffffffffffffffffffffffff16306040518363ffffffff1660e01b8152600401610e04929190612e63565b602060405180830381865afa158015610e21573d6000803e3d6000fd5b505050506040513d601f19601f82011682018060405250810190610e459190612eb8565b80610ef857503073ffffffffffffffffffffffffffffffffffffffff168173ffffffffffffffffffffffffffffffffffffffff1663081812fc85600501546040518263ffffffff1660e01b8152600401610e9f9190612aa6565b602060405180830381865afa158015610ebc573d6000803e3d6000fd5b505050506040513d601f19601f82011682018060405250810190610ee09190612da4565b73ffffffffffffffffffffffffffffffffffffffff16145b610f37576040517f08c379a0000000000000000000000000000000000000000000000000000000008152600401610f2e90612f57565b60405180910390fd5b5b8260000160009054906101000a900473ffffffffffffffffffffffffffffffffffffffff1673ffffffffffffffffffffffffffffffffffffffff163373ffffffffffffffffffffffffffffffffffffffff1603611003578260030160019054906101000a900460ff1615610fe1576040517f08c379a0000000000000000000000000000000000000000000000000000000008152600401610fd890612fc3565b60405180910390fd5b60018360030160016101000a81548160ff021916908315150217905550611073565b8260060160019054906101000a900460ff1615611055576040517f08c379a000000000000000000000000000000000000000000000000000000000815260040161104c90612fc3565b60405180910390fd5b60018360060160016101000a81548160ff0219169083151502179055505b7f4886270d3c681c8373359d1cfafb1a549453e43e452ce59a9eae87f8a23e50be84336040516110a4929190612fe3565b60405180910390a18260030160019054906101000a900460ff1680156110d857508260060160019054906101000a900460ff165b156111145760028360060160026101000a81548160ff0219169083600381111561110557611104612777565b5b021790555061111384611b96565b5b50505050565b6000805490508510611161576040517f08c379a000000000000000000000000000000000000000000000000000000000815260040161115890612b1e565b60405180910390fd5b600080868154811061117657611175612b3e565b5b906000526020600020906007020190506000600381111561119a57611199612777565b5b8160060160029054906101000a900460ff1660038111156111be576111bd612777565b5b146111fe576040517f08c379a00000000000000000000000000000000000000000000000000000000081526004016111f590613058565b60405180910390fd5b8060000160009054906101000a900473ffffffffffffffffffffffffffffffffffffffff1673ffffffffffffffffffffffffffffffffffffffff163373ffffffffffffffffffffffffffffffffffffffff1614806112ab57508060030160029054906101000a900473ffffffffffffffffffffffffffffffffffffffff1673ffffffffffffffffffffffffffffffffffffffff163373ffffffffffffffffffffffffffffffffffffffff16145b6112ea576040517f08c379a00000000000000000000000000000000000000000000000000000000081526004016112e1906130ea565b60405180910390fd5b8060000160009054906101000a900473ffffffffffffffffffffffffffffffffffffffff1673ffffffffffffffffffffffffffffffffffffffff163373ffffffffffffffffffffffffffffffffffffffff16036113b5578060030160009054906101000a900460ff1615611393576040517f08c379a000000000000000000000000000000000000000000000000000000000815260040161138a90613156565b60405180910390fd5b60018160030160006101000a81548160ff021916908315150217905550611425565b8060060160009054906101000a900460ff1615611407576040517f08c379a00000000000000000000000000000000000000000000000000000000081526004016113fe90613156565b60405180910390fd5b60018160060160006101000a81548160ff0219169083151502179055505b60008590508073ffffffffffffffffffffffffffffffffffffffff16636352211e866040518263ffffffff1660e01b81526004016114639190612aa6565b602060405180830381865afa92505050801561149d57506040513d601f19601f8201168201806040525081019061149a9190612da4565b60015b6114dc576040517f08c379a00000000000000000000000000000000000000000000000000000000081526004016114d3906131c2565b60405180910390fd5b8260000160009054906101000a900473ffffffffffffffffffffffffffffffffffffffff1673ffffffffffffffffffffffffffffffffffffffff168173ffffffffffffffffffffffffffffffffffffffff161461156e576040517f08c379a00000000000000000000000000000000000000000000000000000000081526004016115659061322e565b60405180910390fd5b5060008490508073ffffffffffffffffffffffffffffffffffffffff16636352211e856040518263ffffffff1660e01b81526004016115ad9190612aa6565b602060405180830381865afa9250505080156115e757506040513d601f19601f820116820180604052508101906115e49190612da4565b60015b611626576040517f08c379a000000000000000000000000000000000000000000000000000000000815260040161161d906131c2565b60405180910390fd5b8360030160029054906101000a900473ffffffffffffffffffffffffffffffffffffffff1673ffffffffffffffffffffffffffffffffffffffff168173ffffffffffffffffffffffffffffffffffffffff16146116b8576040517f08c379a00000000000000000000000000000000000000000000000000000000081526004016116af906132c0565b60405180910390fd5b508260030160009054906101000a900460ff1680156116e557508260060160009054906101000a900460ff165b156117b057868360010160006101000a81548173ffffffffffffffffffffffffffffffffffffffff021916908373ffffffffffffffffffffffffffffffffffffffff160217905550858360020181905550848360040160006101000a81548173ffffffffffffffffffffffffffffffffffffffff021916908373ffffffffffffffffffffffffffffffffffffffff16021790555083836005018190555060018360060160026101000a81548160ff021916908360038111156117aa576117a9612777565b5b02179055505b7f4d1f01cf26f00694da1c91763a062b3a775364e84d15d847abcfe82672901c6f88336040516117e1929190612fe3565b60405180910390a15050505050505050565b60003373ffffffffffffffffffffffffffffffffffffffff168273ffffffffffffffffffffffffffffffffffffffff1603611863576040517f08c379a000000000000000000000000000000000000000000000000000000000815260040161185a9061332c565b60405180910390fd5b60006040518061016001604052803373ffffffffffffffffffffffffffffffffffffffff168152602001600073ffffffffffffffffffffffffffffffffffffffff168152602001600081526020016000151581526020016000151581526020018473ffffffffffffffffffffffffffffffffffffffff168152602001600073ffffffffffffffffffffffffffffffffffffffff168152602001600081526020016000151581526020016000151581526020016000600381111561192957611928612777565b5b8152509050600081908060018154018082558091505060019003906000526020600020906007020160009091909190915060008201518160000160006101000a81548173ffffffffffffffffffffffffffffffffffffffff021916908373ffffffffffffffffffffffffffffffffffffffff16021790555060208201518160010160006101000a81548173ffffffffffffffffffffffffffffffffffffffff021916908373ffffffffffffffffffffffffffffffffffffffff1602179055506040820151816002015560608201518160030160006101000a81548160ff02191690831515021790555060808201518160030160016101000a81548160ff02191690831515021790555060a08201518160030160026101000a81548173ffffffffffffffffffffffffffffffffffffffff021916908373ffffffffffffffffffffffffffffffffffffffff16021790555060c08201518160040160006101000a81548173ffffffffffffffffffffffffffffffffffffffff021916908373ffffffffffffffffffffffffffffffffffffffff16021790555060e082015181600501556101008201518160060160006101000a81548160ff0219169083151502179055506101208201518160060160016101000a81548160ff0219169083151502179055506101408201518160060160026101000a81548160ff02191690836003811115611b3857611b37612777565b5b0217905550505060006001600080549050611b53919061337b565b90507fb739aa8b34422d66176aae5bc161fefa75ec272c48632050911864f89e6ae0a481604051611b849190612aa6565b60405180910390a18092505050919050565b6000805490508110611bdd576040517f08c379a0000000000000000000000000000000000000000000000000000000008152600401611bd490612b1e565b60405180910390fd5b6000808281548110611bf257611bf1612b3e565b5b9060005260206000209060070201905060026003811115611c1657611c15612777565b5b8160060160029054906101000a900460ff166003811115611c3a57611c39612777565b5b14611c7a576040517f08c379a0000000000000000000000000000000000000000000000000000000008152600401611c71906133fb565b60405180910390fd5b8060000160009054906101000a900473ffffffffffffffffffffffffffffffffffffffff1673ffffffffffffffffffffffffffffffffffffffff163373ffffffffffffffffffffffffffffffffffffffff161480611d2757508060030160029054906101000a900473ffffffffffffffffffffffffffffffffffffffff1673ffffffffffffffffffffffffffffffffffffffff163373ffffffffffffffffffffffffffffffffffffffff16145b611d66576040517f08c379a0000000000000000000000000000000000000000000000000000000008152600401611d5d9061348d565b60405180910390fd5b60008160010160009054906101000a900473ffffffffffffffffffffffffffffffffffffffff16905060008260040160009054906101000a900473ffffffffffffffffffffffffffffffffffffffff1690508173ffffffffffffffffffffffffffffffffffffffff1663e985e9c58460000160009054906101000a900473ffffffffffffffffffffffffffffffffffffffff16306040518363ffffffff1660e01b8152600401611e17929190612e63565b602060405180830381865afa158015611e34573d6000803e3d6000fd5b505050506040513d601f19601f82011682018060405250810190611e589190612eb8565b80611f0b57503073ffffffffffffffffffffffffffffffffffffffff168273ffffffffffffffffffffffffffffffffffffffff1663081812fc85600201546040518263ffffffff1660e01b8152600401611eb29190612aa6565b602060405180830381865afa158015611ecf573d6000803e3d6000fd5b505050506040513d601f19601f82011682018060405250810190611ef39190612da4565b73ffffffffffffffffffffffffffffffffffffffff16145b611f4a576040517f08c379a0000000000000000000000000000000000000000000000000000000008152600401611f419061351f565b60405180910390fd5b8073ffffffffffffffffffffffffffffffffffffffff1663e985e9c58460030160029054906101000a900473ffffffffffffffffffffffffffffffffffffffff16306040518363ffffffff1660e01b8152600401611fa9929190612e63565b602060405180830381865afa158015611fc6573d6000803e3d6000fd5b505050506040513d601f19601f82011682018060405250810190611fea9190612eb8565b8061209d57503073ffffffffffffffffffffffffffffffffffffffff168173ffffffffffffffffffffffffffffffffffffffff1663081812fc85600501546040518263ffffffff1660e01b81526004016120449190612aa6565b602060405180830381865afa158015612061573d6000803e3d6000fd5b505050506040513d601f19601f820116820180604052508101906120859190612da4565b73ffffffffffffffffffffffffffffffffffffffff16145b6120dc576040517f08c379a00000000000000000000000000000000000000000000000000000000081526004016120d3906135b1565b60405180910390fd5b8260000160009054906101000a900473ffffffffffffffffffffffffffffffffffffffff1673ffffffffffffffffffffffffffffffffffffffff168273ffffffffffffffffffffffffffffffffffffffff16636352211e85600201546040518263ffffffff1660e01b81526004016121549190612aa6565b602060405180830381865afa158015612171573d6000803e3d6000fd5b505050506040513d601f19601f820116820180604052508101906121959190612da4565b73ffffffffffffffffffffffffffffffffffffffff16146121eb576040517f08c379a00000000000000000000000000000000000000000000000000000000081526004016121e290613643565b60405180910390fd5b8260030160029054906101000a900473ffffffffffffffffffffffffffffffffffffffff1673ffffffffffffffffffffffffffffffffffffffff168173ffffffffffffffffffffffffffffffffffffffff16636352211e85600501546040518263ffffffff1660e01b81526004016122639190612aa6565b602060405180830381865afa158015612280573d6000803e3d6000fd5b505050506040513d601f19601f820116820180604052508101906122a49190612da4565b73ffffffffffffffffffffffffffffffffffffffff16146122fa576040517f08c379a00000000000000000000000000000000000000000000000000000000081526004016122f1906136d5565b60405180910390fd5b8173ffffffffffffffffffffffffffffffffffffffff166323b872dd8460000160009054906101000a900473ffffffffffffffffffffffffffffffffffffffff168560030160029054906101000a900473ffffffffffffffffffffffffffffffffffffffff1686600201546040518463ffffffff1660e01b8152600401612383939291906136f5565b600060405180830381600087803b15801561239d57600080fd5b505af19250505080156123ae575060015b6123ed576040517f08c379a00000000000000000000000000000000000000000000000000000000081526004016123e490613778565b60405180910390fd5b8073ffffffffffffffffffffffffffffffffffffffff166323b872dd8460030160029054906101000a900473ffffffffffffffffffffffffffffffffffffffff168560000160009054906101000a900473ffffffffffffffffffffffffffffffffffffffff1686600501546040518463ffffffff1660e01b8152600401612476939291906136f5565b600060405180830381600087803b15801561249057600080fd5b505af19250505080156124a1575060015b61259b578173ffffffffffffffffffffffffffffffffffffffff166323b872dd8460030160029054906101000a900473ffffffffffffffffffffffffffffffffffffffff168560000160009054906101000a900473ffffffffffffffffffffffffffffffffffffffff1686600201546040518463ffffffff1660e01b815260040161252e939291906136f5565b600060405180830381600087803b15801561254857600080fd5b505af115801561255c573d6000803e3d6000fd5b505050506040517f08c379a0000000000000000000000000000000000000000000000000000000008152600401612592906137e4565b60405180910390fd5b7f60f91a26281f20fb528663f4da55773c83e2ee8a7a5dddb6d1753749e81dc49b846040516125ca9190612aa6565b60405180910390a150505050565b604051806101600160405280600073ffffffffffffffffffffffffffffffffffffffff168152602001600073ffffffffffffffffffffffffffffffffffffffff16815260200160008152602001600015158152602001600015158152602001600073ffffffffffffffffffffffffffffffffffffffff168152602001600073ffffffffffffffffffffffffffffffffffffffff168152602001600081526020016000151581526020016000151581526020016000600381111561269e5761269d612777565b5b81525090565b600080fd5b6000819050919050565b6126bc816126a9565b81146126c757600080fd5b50565b6000813590506126d9816126b3565b92915050565b6000602082840312156126f5576126f46126a4565b5b6000612703848285016126ca565b91505092915050565b600073ffffffffffffffffffffffffffffffffffffffff82169050919050565b60006127378261270c565b9050919050565b6127478161272c565b82525050565b612756816126a9565b82525050565b60008115159050919050565b6127718161275c565b82525050565b7f4e487b7100000000000000000000000000000000000000000000000000000000600052602160045260246000fd5b600481106127b7576127b6612777565b5b50565b60008190506127c8826127a6565b919050565b60006127d8826127ba565b9050919050565b6127e8816127cd565b82525050565b600061016082019050612804600083018e61273e565b612811602083018d61273e565b61281e604083018c61274d565b61282b606083018b612768565b612838608083018a612768565b61284560a083018961273e565b61285260c083018861273e565b61285f60e083018761274d565b61286d610100830186612768565b61287b610120830185612768565b6128896101408301846127df565b9c9b505050505050505050505050565b6128a28161272c565b82525050565b6128b1816126a9565b82525050565b6128c08161275c565b82525050565b6128cf816127cd565b82525050565b610160820160008201516128ec6000850182612899565b5060208201516128ff6020850182612899565b50604082015161291260408501826128a8565b50606082015161292560608501826128b7565b50608082015161293860808501826128b7565b5060a082015161294b60a0850182612899565b5060c082015161295e60c0850182612899565b5060e082015161297160e08501826128a8565b506101008201516129866101008501826128b7565b5061012082015161299b6101208501826128b7565b506101408201516129b06101408501826128c6565b50505050565b6000610160820190506129cc60008301846128d5565b92915050565b6129db8161272c565b81146129e657600080fd5b50565b6000813590506129f8816129d2565b92915050565b600080600080600060a08688031215612a1a57612a196126a4565b5b6000612a28888289016126ca565b9550506020612a39888289016129e9565b9450506040612a4a888289016126ca565b9350506060612a5b888289016129e9565b9250506080612a6c888289016126ca565b9150509295509295909350565b600060208284031215612a8f57612a8e6126a4565b5b6000612a9d848285016129e9565b91505092915050565b6000602082019050612abb600083018461274d565b92915050565b600082825260208201905092915050565b7f547261646520646f6573206e6f74206578697374000000000000000000000000600082015250565b6000612b08601483612ac1565b9150612b1382612ad2565b602082019050919050565b60006020820190508181036000830152612b3781612afb565b9050919050565b7f4e487b7100000000000000000000000000000000000000000000000000000000600052603260045260246000fd5b7f54726164652063616e206f6e6c792062652063616e63656c6c656420696e205060008201527f726f706f736564206f7220416772656564207374617465000000000000000000602082015250565b6000612bc9603783612ac1565b9150612bd482612b6d565b604082019050919050565b60006020820190508181036000830152612bf881612bbc565b9050919050565b7f4e6f7420617574686f72697a656420746f2063616e63656c207468697320747260008201527f6164650000000000000000000000000000000000000000000000000000000000602082015250565b6000612c5b602383612ac1565b9150612c6682612bff565b604082019050919050565b60006020820190508181036000830152612c8a81612c4e565b9050919050565b7f5472616465206973206e6f7420696e2061677265656420737461746500000000600082015250565b6000612cc7601c83612ac1565b9150612cd282612c91565b602082019050919050565b60006020820190508181036000830152612cf681612cba565b9050919050565b7f4e6f7420617574686f72697a656420746f20636f6e6669726d2074686973207460008201527f7261646500000000000000000000000000000000000000000000000000000000602082015250565b6000612d59602483612ac1565b9150612d6482612cfd565b604082019050919050565b60006020820190508181036000830152612d8881612d4c565b9050919050565b600081519050612d9e816129d2565b92915050565b600060208284031215612dba57612db96126a4565b5b6000612dc884828501612d8f565b91505092915050565b7f54726164652063616e63656c6c6564202d204e4654206f776e6572736869702060008201527f6368616e67656400000000000000000000000000000000000000000000000000602082015250565b6000612e2d602783612ac1565b9150612e3882612dd1565b604082019050919050565b60006020820190508181036000830152612e5c81612e20565b9050919050565b6000604082019050612e78600083018561273e565b612e85602083018461273e565b9392505050565b612e958161275c565b8114612ea057600080fd5b50565b600081519050612eb281612e8c565b92915050565b600060208284031215612ece57612ecd6126a4565b5b6000612edc84828501612ea3565b91505092915050565b7f436f6e7472616374206e6f7420617070726f76656420746f207472616e73666560008201527f72204e4654000000000000000000000000000000000000000000000000000000602082015250565b6000612f41602583612ac1565b9150612f4c82612ee5565b604082019050919050565b60006020820190508181036000830152612f7081612f34565b9050919050565b7f416c726561647920636f6e6669726d6564207468697320747261646500000000600082015250565b6000612fad601c83612ac1565b9150612fb882612f77565b602082019050919050565b60006020820190508181036000830152612fdc81612fa0565b9050919050565b6000604082019050612ff8600083018561274d565b613005602083018461273e565b9392505050565b7f5472616465206973206e6f7420696e2070726f706f7365642073746174650000600082015250565b6000613042601e83612ac1565b915061304d8261300c565b602082019050919050565b6000602082019050818103600083015261307181613035565b9050919050565b7f4e6f7420617574686f72697a656420746f20616772656520746f20746869732060008201527f7472616465000000000000000000000000000000000000000000000000000000602082015250565b60006130d4602583612ac1565b91506130df82613078565b604082019050919050565b60006020820190508181036000830152613103816130c7565b9050919050565b7f416c72656164792061677265656420746f207468697320747261646500000000600082015250565b6000613140601c83612ac1565b915061314b8261310a565b602082019050919050565b6000602082019050818103600083015261316f81613133565b9050919050565b7f526571756573746564204e465420646f6573206e6f7420657869737400000000600082015250565b60006131ac601c83612ac1565b91506131b782613176565b602082019050919050565b600060208201905081810360008301526131db8161319f565b9050919050565b7f596f7520646f206e6f74206f776e2074686973204e4654000000000000000000600082015250565b6000613218601783612ac1565b9150613223826131e2565b602082019050919050565b600060208201905081810360008301526132478161320b565b9050919050565b7f526571756573746564204e4654206973206e6f74206f776e656420627920746160008201527f7267657420616464726573730000000000000000000000000000000000000000602082015250565b60006132aa602c83612ac1565b91506132b58261324e565b604082019050919050565b600060208201905081810360008301526132d98161329d565b9050919050565b7f43616e6e6f74207472616465207769746820796f757273656c66000000000000600082015250565b6000613316601a83612ac1565b9150613321826132e0565b602082019050919050565b6000602082019050818103600083015261334581613309565b9050919050565b7f4e487b7100000000000000000000000000000000000000000000000000000000600052601160045260246000fd5b6000613386826126a9565b9150613391836126a9565b92508282039050818111156133a9576133a861334c565b5b92915050565b7f5472616465206973206e6f7420696e20636f6e6669726d656420737461746500600082015250565b60006133e5601f83612ac1565b91506133f0826133af565b602082019050919050565b60006020820190508181036000830152613414816133d8565b9050919050565b7f4e6f7420617574686f72697a656420746f20657865637574652074686973207460008201527f7261646500000000000000000000000000000000000000000000000000000000602082015250565b6000613477602483612ac1565b91506134828261341b565b604082019050919050565b600060208201905081810360008301526134a68161346a565b9050919050565b7f436f6e7472616374206e6f7420617070726f76656420746f207472616e73666560008201527f72206669727374204e4654000000000000000000000000000000000000000000602082015250565b6000613509602b83612ac1565b9150613514826134ad565b604082019050919050565b60006020820190508181036000830152613538816134fc565b9050919050565b7f436f6e7472616374206e6f7420617070726f76656420746f207472616e73666560008201527f72207365636f6e64204e46540000000000000000000000000000000000000000602082015250565b600061359b602c83612ac1565b91506135a68261353f565b604082019050919050565b600060208201905081810360008301526135ca8161358e565b9050919050565b7f53656e646572206e6f206c6f6e676572206f776e7320746865206f666665726560008201527f64204e4654000000000000000000000000000000000000000000000000000000602082015250565b600061362d602583612ac1565b9150613638826135d1565b604082019050919050565b6000602082019050818103600083015261365c81613620565b9050919050565b7f5265636569766572206e6f206c6f6e676572206f776e7320746865207265717560008201527f6573746564204e46540000000000000000000000000000000000000000000000602082015250565b60006136bf602983612ac1565b91506136ca82613663565b604082019050919050565b600060208201905081810360008301526136ee816136b2565b9050919050565b600060608201905061370a600083018661273e565b613717602083018561273e565b613724604083018461274d565b949350505050565b7f4669727374204e4654207472616e73666572206661696c656400000000000000600082015250565b6000613762601983612ac1565b915061376d8261372c565b602082019050919050565b6000602082019050818103600083015261379181613755565b9050919050565b7f5365636f6e64204e4654207472616e73666572206661696c6564000000000000600082015250565b60006137ce601a83612ac1565b91506137d982613798565b602082019050919050565b600060208201905081810360008301526137fd816137c1565b905091905056fea264697066735822122031a4c6bdc0cd03a17333b14f95c0d43daf5f76f7d6a679d7bd24edd974639ca264736f6c634300081c0033",
  "devdoc": {
    "kind": "dev",
    "methods": {},
    "version": 1
  },
  "userdoc": {
    "kind": "user",
    "methods": {},
    "version": 1
  },
  "storageLayout": {
    "storage": [
      {
        "astId": 6203,
        "contract": "contracts/NftSwap.sol:NftSwap",
        "label": "trades",
        "offset": 0,
        "slot": "0",
        "type": "t_array(t_struct(Trade)6199_storage)dyn_storage"
      }
    ],
    "types": {
      "t_address": {
        "encoding": "inplace",
        "label": "address",
        "numberOfBytes": "20"
      },
      "t_array(t_struct(Trade)6199_storage)dyn_storage": {
        "base": "t_struct(Trade)6199_storage",
        "encoding": "dynamic_array",
        "label": "struct NftSwap.Trade[]",
        "numberOfBytes": "32"
      },
      "t_bool": {
        "encoding": "inplace",
        "label": "bool",
        "numberOfBytes": "1"
      },
      "t_enum(TradeStatus)6175": {
        "encoding": "inplace",
        "label": "enum NftSwap.TradeStatus",
        "numberOfBytes": "1"
      },
      "t_struct(Trade)6199_storage": {
        "encoding": "inplace",
        "label": "struct NftSwap.Trade",
        "members": [
          {
            "astId": 6177,
            "contract": "contracts/NftSwap.sol:NftSwap",
            "label": "fromAddress",
            "offset": 0,
            "slot": "0",
            "type": "t_address"
          },
          {
            "astId": 6179,
            "contract": "contracts/NftSwap.sol:NftSwap",
            "label": "fromNftContract",
            "offset": 0,
            "slot": "1",
            "type": "t_address"
          },
          {
            "astId": 6181,
            "contract": "contracts/NftSwap.sol:NftSwap",
            "label": "fromNftId",
            "offset": 0,
            "slot": "2",
            "type": "t_uint256"
          },
          {
            "astId": 6183,
            "contract": "contracts/NftSwap.sol:NftSwap",
            "label": "fromHasAgreed",
            "offset": 0,
            "slot": "3",
            "type": "t_bool"
          },
          {
            "astId": 6185,
            "contract": "contracts/NftSwap.sol:NftSwap",
            "label": "fromHasConfirmed",
            "offset": 1,
            "slot": "3",
            "type": "t_bool"
          },
          {
            "astId": 6187,
            "contract": "contracts/NftSwap.sol:NftSwap",
            "label": "toAddress",
            "offset": 2,
            "slot": "3",
            "type": "t_address"
          },
          {
            "astId": 6189,
            "contract": "contracts/NftSwap.sol:NftSwap",
            "label": "toNftContract",
            "offset": 0,
            "slot": "4",
            "type": "t_address"
          },
          {
            "astId": 6191,
            "contract": "contracts/NftSwap.sol:NftSwap",
            "label": "toNftId",
            "offset": 0,
            "slot": "5",
            "type": "t_uint256"
          },
          {
            "astId": 6193,
            "contract": "contracts/NftSwap.sol:NftSwap",
            "label": "toHasAgreed",
            "offset": 0,
            "slot": "6",
            "type": "t_bool"
          },
          {
            "astId": 6195,
            "contract": "contracts/NftSwap.sol:NftSwap",
            "label": "toHasConfirmed",
            "offset": 1,
            "slot": "6",
            "type": "t_bool"
          },
          {
            "astId": 6198,
            "contract": "contracts/NftSwap.sol:NftSwap",
            "label": "status",
            "offset": 2,
            "slot": "6",
            "type": "t_enum(TradeStatus)6175"
          }
        ],
        "numberOfBytes": "224"
      },
      "t_uint256": {
        "encoding": "inplace",
        "label": "uint256",
        "numberOfBytes": "32"
      }
    }
  }
}